:04000000D6EF03F044
:1006000000009468000E956E82A009EF03F00BEFD6
:1006100003F024EF03F08368300E016E750E026E56
:10062000000E036E000E046EB2EC03F0000E836E3B
:10063000300E016E750E026E000E036E000E046E1B
:10064000B2EC03F004EF03F082A229EF03F02BEFEA
:1006500003F064EF03F0010E126E000E136E000E35
:10066000146E000E156E12C083FF000E0F6E000E8A
:100670000E6E0E4A0F2A0FBE47EF03F0310E0E5CCE
:10068000750E0F58D8A047EF03F049EF03F039EF8C
:1006900003F0D8901234126E1334136E1434146EA7
:1006A0001534156E15BE60EF03F0155014101310BD
:1006B00009E1810E125CD8A060EF03F062EF03F055
:1006C00033EF03F004EF03F082A469EF03F06BEF64
:1006D00003F0AEEF03F0010E166E000E176E000E63
:1006E000186E000E196E16C083FF000E116E000EFC
:1006F000106E104A112A11BE87EF03F0300E105C05
:10070000750E1158D8A087EF03F089EF03F079EF49
:1007100003F0D89016340A6E17340B6E18340C6E32
:1007200019340D6E010E0A24166E000E0B20176E82
:10073000000E0C20186E000E0D20196E19BEAAEFC7
:1007400003F01950181008E11704D8A0AAEF03F01D
:10075000ACEF03F073EF03F004EF03F004EF03F0EA
:1007600000EF00F0000E066E000E076E000E086E21
:10077000000E096EC2EF03F0010E0626000E0722DE
:10078000082209220650015C0750025808500358FD
:100790000450800A056E0950800A0558D8B0D3EF7E
:1007A00003F0D5EF03F0BCEF03F01200000101EFFE
:0207B00003F054
:00000001FF
