:04000000D0EF05F048
:100600000050617373776F726420436F7272656319
:100610007400454E5445522050415353574F524455
:100620000050617373776F72642057726F6E67004A
:0106300000C9
:100632000F0EC16EF00E936E000E946E000E956E4C
:100642008268010E98EC05F00F0E98EC05F0380E5A
:1006520098EC05F0010E98EC05F0120E0B6EE8EC2A
:1006620005F0C00E98EC05F0000E2A6E2A50200FFD
:10067200D96EDA6A6AEC04F00150DF6E2A50200F5C
:10068200D96EDA6ADF50B4EC05F081A84BEF03F0C3
:100692004DEF03F046EF03F081AA52EF03F054EF5F
:1006A20003F046EF03F081AC59EF03F05BEF03F088
:1006B20046EF03F081AE60EF03F062EF03F046EF26
:1006C20003F02A2A030E2A6469EF03F06BEF03F0AA
:1006D20037EF03F0200E016E250E026E45EC05F099
:1006E20001500210D8A478EF03F07AEF03F0F1EF93
:1006F20003F0000E0C6E000E0D6E000E0E6E000E5C
:100702000F6E010E0C26000E0D220E220F220FBEBE
:1007120098EF03F00F500DE1A10E0C5C860E0D5800
:10072200010E0E58D8A098EF03F09AEF03F082EF73
:1007320003F0010E98EC05F0010E0B6EE8EC05F0EB
:10074200000E1D6E000E1C6E080E98EC05F0E80EF1
:10075200016E030E026E000E036E000E046E74EC48
:1007620005F00E0E98EC05F0E80E016E030E026E17
:10077200000E036E000E046E74EC05F01C4A1D2A76
:100782001DBECDEF03F01D5009E10B0E1C5CD8A07D
:10079200CDEF03F0CFEF03F0A5EF03F0000E106EE4
:1007A200000E116E000E126E000E136E010E102658
:1007B200000E11221222132213BEEDEF03F013508A
:1007C2000DE1A10E105C860E1158010E1258D8A030
:1007D200EDEF03F0EFEF03F0D7EF03F02BEF03F0B1
:1007E200000E146E000E156E000E166E000E176EC1
:1007F200010E1426000E15221622172217BE0FEF25
:1008020004F017500DE1A10E145C860E1558010E6E
:100812001658D8A00FEF04F011EF04F0F9EF03F02F
:10082200010E98EC05F0210E0B6EE8EC05F0000EBF
:100832001F6E000E1E6E080E98EC05F0E80E016E9B
:10084200030E026E000E036E000E046E74EC05F0D1
:100852000E0E98EC05F0E80E016E030E026E000E0D
:10086200036E000E046E74EC05F01E4A1F2A1FBEB2
:1008720044EF04F01F5009E10B0E1E5CD8A044EFB8
:1008820004F046EF04F01CEF04F0000E186E000EA8
:10089200196E000E1A6E000E1B6E010E1826000E47
:1008A20019221A221B221BBE64EF04F01B500DE119
:1008B200410E185C420E19580F0E1A58D8A064EF58
:1008C20004F066EF04F04EEF04F02BEF03F000EFBC
:1008D20000F00E0E816E81B871EF04F073EF04F038
:1008E20079EF04F0000E026E310E016E44EF05F056
:1008F20081BA7EEF04F080EF04F086EF04F0000E80
:10090200026E320E016E44EF05F081BC8BEF04F0F3
:100912008DEF04F093EF04F0000E026E330E016EC1
:1009220044EF05F081BE98EF04F09AEF04F0A0EFD7
:1009320004F0000E026E340E016E44EF05F00D0E4F
:10094200816E81B8A7EF04F0A9EF04F0AFEF04F0D5
:10095200000E026E350E016E44EF05F081BAB4EF5F
:1009620004F0B6EF04F0BCEF04F0000E026E360E97
:10097200016E44EF05F081BCC1EF04F0C3EF04F057
:10098200C9EF04F0000E026E370E016E44EF05F05F
:1009920081BECEEF04F0D0EF04F0D6EF04F0000EEB
:1009A200026E380E016E44EF05F00B0E816E81B8B7
:1009B200DDEF04F0DFEF04F0E5EF04F0000E026E6D
:1009C200390E016E44EF05F081BAEAEF04F0ECEF64
:1009D20004F0F2EF04F0000E026E410E016E44EFDD
:1009E20005F081BCF7EF04F0F9EF04F0FFEF04F03B
:1009F200000E026E420E016E44EF05F081BE04EF5E
:100A020005F006EF05F00CEF05F0000E026E430E46
:100A1200016E44EF05F0070E816E81B813EF05F009
:100A220015EF05F01BEF05F0000E026E440E016E8D
:100A320044EF05F081BA20EF05F022EF05F028EF30
:100A420005F0000E026E450E016E44EF05F081BC0A
:100A52002DEF05F02FEF05F035EF05F0000E026ED9
:100A6200460E016E44EF05F081BE3AEF05F03CEF11
:100A720005F042EF05F0000E026E470E016E44EFE4
:100A820005F06AEF04F0120049EF05F0012A022A8C
:100A92000250D96EDA6A0150E16EE26ADE50E6185F
:100AA200D8A456EF05F058EF05F063EF05F00150BA
:100AB200D96EDA6ADF50D8A461EF05F063EF05F072
:100AC20047EF05F00150D96EDA6ADF50036E02502B
:100AD200D96EDA6ADF50046E0450035C016E026A5A
:100AE200D8A002061200000E066E000E076E000E5F
:100AF200086E000E096E84EF05F0010E0626000E48
:100B02000722082209220650015C075002580850A9
:100B120003580450800A056E0950800A0558D8B05F
:100B220095EF05F097EF05F07EEF05F012000A6EE3
:100B3200829082920AC083FF8284640E016E000E4C
:100B4200026E000E036E000E046E74EC05F08294C9
:100B5200880E016E130E026E000E036E000E046EFE
:100B620074EC05F012000A6E828082920AC083FF42
:100B72008284640E016E000E026E000E036E000E81
:100B8200046E74EC05F08294880E016E130E026EF0
:100B9200000E036E000E046E74EC05F01200FC0EE3
:100BA200F66E0B0EF76E000EF86E00EE20F010EEF1
:100BB2000AF00900F5CFEEFFE550E150FAE12A6AAA
:100BC200000EF86E060EF76E000119EF03F0F1EF5A
:100BD20005F00BC0F6FF0800F550B4EC05F00B2A47
:100BE2000BC0F6FF0800F5500009D8A4FBEF05F092
:100BF200FDEF05F0EAEF05F0120030303030003141
:040C02003233340055
:00000001FF
