:04000000AFEF04F06A
:10060000004D313A53746F707065642020202020B3
:100610002020004D323A53746F70706564202020A2
:1006200020202020004D313A416E7469636C6F6365
:100630006B77697365004D323A416E7469636C6F14
:10064000636B77697365004D313A436C6F636B7709
:10065000697365004D323A436C6F636B77697365FC
:100660000000010E946E000E956E040E936E010E46
:1006700061EC04F00F0E61EC04F0380E61EC04F054
:10068000000E0D6E000E0C6E000E0F6E000E0E6E44
:1006900082A04DEF03F04FEF03F07BEF03F00C501F
:1006A0000D10D8A456EF03F058EF03F07BEF03F0E2
:1006B00082828294000E0D6E010E0C6E800E61EC33
:1006C00004F0180E61EC04F0640E016E000E026E70
:1006D000000E036E000E046E3DEC04F0470E0B6E30
:1006E00099EC04F082B077EF03F079EF03F072EF4A
:1006F00003F0C6EF03F082A080EF03F082EF03F077
:10070000A1EF03F00C040D10D8A489EF03F08BEFD8
:1007100003F0A1EF03F082928284000E0D6E020EB0
:100720000C6E800E61EC04F0250E0B6E99EC04F05B
:1007300082B09DEF03F09FEF03F098EF03F0C6EF58
:1007400003F082A0A6EF03F0A8EF03F0C6EF03F0DA
:10075000020E0C180D10D8A4B0EF03F0B2EF03F0A6
:10076000C6EF03F082928294000E0D6E000E0C6EA6
:10077000800E61EC04F0010E0B6E99EC04F082B077
:10078000C4EF03F0C6EF03F0BFEF03F081A4CBEF9B
:1007900003F0CDEF03F0ECEF03F00E500F10D8A4F0
:1007A000D4EF03F0D6EF03F0ECEF03F0828C829EDF
:1007B000000E0F6E010E0E6EC00E61EC04F0540EB2
:1007C0000B6E99EC04F081B4E8EF03F0EAEF03F06C
:1007D000E3EF03F048EF03F081A4F1EF03F0F3EF50
:1007E00003F012EF04F00E040F10D8A4FAEF03F098
:1007F000FCEF03F012EF04F0829C828E000E0F6E6D
:10080000020E0E6EC00E61EC04F0360E0B6E99EC0B
:1008100004F081B40EEF04F010EF04F009EF04F0DF
:1008200048EF03F081A417EF04F019EF04F039EF5B
:1008300004F0020E0E180F10D8A421EF04F023EFDD
:1008400004F039EF04F0829C829E000E0F6E000EC1
:100850000E6EC00E61EC04F0130E0B6E99EC04F0FA
:1008600081B435EF04F037EF04F030EF04F048EFD7
:1008700003F048EF03F000EF00F0000E066E000EEC
:10088000076E000E086E000E096E4DEF04F0010EAB
:100890000626000E0722082209220650015C075096
:1008A0000258085003580450800A056E0950800A07
:1008B0000558D8B05EEF04F060EF04F047EF04F0A5
:1008C00012000A6E829682980AC083FF828A640EA2
:1008D000016E000E026E000E036E000E046E3DEC03
:1008E00004F0829A880E016E130E026E000E036EE3
:1008F000000E046E3DEC04F012000A6E82868298AF
:100900000AC083FF828A640E016E000E026E000E22
:10091000036E000E046E3DEC04F0829A880E016EA8
:10092000130E026E000E036E000E046E3DEC04F01A
:100930001200A2EF04F00BC0F6FF0800F5507DECAA
:1009400004F00B2A0BC0F6FF0800F5500009D8A4EC
:10095000ACEF04F0AEEF04F09BEF04F01200000ED9
:0C096000F86E060EF76E000131EF03F098
:00000001FF
