:04000000C3EF04F056
:100600000000000E946E000E956E010E236E000E1B
:10061000246E000E256E000E266E23C082FF000E93
:10062000136E000E146E000E156E000E166E010E87
:100630001326000E142215221622165015100BE157
:10064000300E135C750E1458D8A029EF03F02BEF71
:1006500003F017EF03F0D89023340F6E2434106E9C
:100660002534116E2634126E010E0F24236E000EF7
:100670001020246E000E1120256E000E1220266E12
:1006800026BE4CEF03F02650251008E12404D8A024
:100690004CEF03F04EEF03F00DEF03F0010E276E69
:1006A000000E286E000E296E000E2A6E27C083FFF2
:1006B000000E176E000E186E000E196E000E1A6EE8
:1006C000010E1726000E182219221A221A5019108C
:1006D0000BE1300E175C750E1858D8A072EF03F0BE
:1006E00074EF03F060EF03F0D89027340F6E2834D6
:1006F000106E2934116E2A34126E010E0F24276EEB
:10070000000E1020286E000E1120296E000E1220FF
:100710002A6E2ABE95EF03F02A50291008E128041A
:10072000D8A095EF03F097EF03F056EF03F0000E1B
:10073000836EFF0E2B6E000E2C6E000E2D6E000EC3
:100740002E6E2BC083FF000E1B6E000E1C6E000E63
:100750001D6E000E1E6E010E1B26000E1C221D2299
:100760001E221E501D100BE1300E1B5C750E1C5816
:10077000D8A0BDEF03F0BFEF03F0ABEF03F02BC049
:1007800001F02CC002F02DC003F02EC004F0020EC8
:10079000056E000E066E000E076E000E086E3DEC34
:1007A00004F001C02BF002C02CF003C02DF004C0F7
:1007B0002EF02EBEE8EF03F02E502D102C1006E187
:1007C0002B04D8B0E6EF03F0E8EF03F0A1EF03F05D
:1007D000FF0E2F6E000E306E000E316E000E326E68
:1007E0002FC082FF000E1F6E000E206E000E216EC5
:1007F000000E226E010E1F26000E20222122222230
:10080000225021100BE1300E1F5C750E2058D8A02D
:100810000CEF04F00EEF04F0FAEF03F02FC001F03C
:1008200030C002F031C003F032C004F0020E056E99
:10083000000E066E000E076E000E086E3DEC04F012
:1008400001C02FF002C030F003C031F004C032F01C
:1008500032BE37EF04F032503110301006E12F0471
:10086000D8B035EF04F037EF04F0F0EF03F0000EEE
:10087000826E05EF03F000EF00F0000E0A6E08BE76
:1008800046EF04F044EF04F050EF04F0081E071E9A
:10089000061E056C000E062207220822010E0A6EB3
:1008A00004BE57EF04F055EF04F061EF04F0041EAE
:1008B000031E021E016C000E022203220422010EFE
:1008C0000A1A000E0B6E000E0C6E000E0D6E000E5E
:1008D0000E6E0550061007100810D8B472EF04F021
:1008E00074EF04F0AAEF04F0010E096E7EEF04F03D
:1008F000D8900536063607360836092A08AE83EF43
:1009000004F085EF04F078EF04F0D8900B360C3645
:100910000D360E360550015C06500258075003583C
:1009200008500458D8A097EF04F099EF04F0A2EF14
:1009300004F00550015E0650025A0750035A085051
:10094000045A0B80D8900832073206320532092E3D
:1009500085EF04F00A50D8B4B0EF04F0B2EF04F021
:10096000BAEF04F00E1E0D1E0C1E0B6C000E0C22B6
:100970000D220E220BC001F00CC002F00DC003F0DE
:0C0980000EC004F01200000101EF03F0B3
:00000001FF
