:0400000007EF00F016
:0A0008000982EBED3EF0E2EF3EF05E
:021400000000EA
:107DC400086A076A09900992000EF86E00014AEFEA
:107DD4003FF00600F2A2F1EF3EF0F3EF3EF006EFC3
:107DE4003FF0030E07180810D8A4FBEF3EF0FDEF98
:107DF4003EF001EF3FF0000E086E000E076E08EC37
:107E04003FF0074A082AF29209921100000E026E0E
:107E1400000E016E000ED76E3D0ED66EF2A415EF65
:107E24003FF017EF3FF010EF3FF0F294014A022ABF
:107E340002BE26EF3FF0025009E1650E015CD8A0B6
:107E440026EF3FF028EF3FF00CEF3FF01200000E5A
:107E5400046E000E036E000ED76E3D0ED66EF2A4B5
:107E640036EF3FF038EF3FF031EF3FF0F294034A42
:107E7400042A04BE47EF3FF0045009E1650E035C99
:107E8400D8A047EF3FF049EF3FF02DEF3FF012004D
:107E9400000E946E010E936ED00EF26E0F0EC16E34
:107EA400C70ED56E64EF3FF0826864EF3FF0000EBA
:107EB400826E64EF3FF0826829EC3FF0000E826E20
:107EC40029EC3FF007C005F008C006F00650000A90
:107ED400D8B46FEF3FF064EF3FF00550010AD8B417
:107EE40056EF3FF0030AD8B459EF3FF0010AD8B473
:0C7EF4005DEF3FF064EF3FF007EF00F09F
:00000001FF
