:0400000007EF00F016
:0A000800288201ED03F070EF04F010
:1006000000000600F2A207EF03F009EF03F05AEF33
:1006100003F0FF0E176E000E186E000E196E000E1E
:100620001A6E17C082FF000E0F6E000E106E000EC5
:10063000116E000E126E010E0F26000E10221122F6
:100640001222125011100BE1300E0F5C750E105873
:10065000D8A02DEF03F02FEF03F01BEF03F017C02E
:1006600001F018C002F019C003F01AC004F0020E25
:10067000056E000E066E000E076E000E086EA1ECF1
:1006800003F001C017F002C018F003C019F004C055
:100690001AF01ABE59EF03F01A501910181007E19A
:1006A000020E175CD8B057EF03F059EF03F011EFCB
:1006B00003F0F292F0A05FEF03F061EF03F09FEF21
:1006C00003F0010E1B6E000E1C6E000E1D6E000E60
:1006D0001E6E1BC082FF000E136E000E146E000E05
:1006E000156E000E166E010E1326000E1422152232
:1006F0001622165015100BE1300E135C750E1458AF
:10070000D8A085EF03F087EF03F073EF03F0D890E4
:100710001B341B6E1C341C6E1D341D6E1E341E6E6D
:100720001EBE9CEF03F01E501D1008E11C04D8A053
:100730009CEF03F09EEF03F069EF03F0F090289236
:100740001100000E0A6E08BEAAEF03F0A8EF03F036
:10075000B4EF03F0081E071E061E056C000E0622ED
:1007600007220822010E0A6E04BEBBEF03F0B9EFA8
:1007700003F0C5EF03F0041E031E021E016C000E01
:10078000022203220422010E0A1A000E0B6E000E32
:100790000C6E000E0D6E000E0E6E0550061007104A
:1007A0000810D8B4D6EF03F0D8EF03F00EEF04F042
:1007B000010E096EE2EF03F0D890053606360736D3
:1007C0000836092A08AEE7EF03F0E9EF03F0DCEFA3
:1007D00003F0D8900B360C360D360E360550015C02
:1007E000065002580750035808500458D8A0FBEF91
:1007F00003F0FDEF03F006EF04F00550015E065034
:10080000025A0750035A0850045A0B80D8900832F5
:10081000073206320532092EE9EF03F00A50D8B448
:1008200014EF04F016EF04F01EEF04F00E1E0D1E80
:100830000C1E0B6C000E0C220D220E220BC001F0C0
:100840000CC002F00DC003F00EC004F01200000E48
:10085000946E010E936EC00EF26E080EF06E0F0EC7
:10086000C16E8268E80E1F6E030E206E000E216EB0
:10087000000E226E4CEC04F0000E826EE80E1F6E2D
:10088000030E206E000E216E000E226E4CEC04F062
:1008900031EF04F007EF00F0000E246E000E256E1D
:1008A000000E266E000E276E5CEF04F0010E24266B
:1008B000000E25222622272224501F5C2550205876
:1008C000265021582250800A236E2750800A235830
:1008D000D8B06DEF04F06FEF04F056EF04F01200A3
:0A08E00028902892000127EF04F091
:00000001FF
