:0400000087EF03F093
:100600000000000E946E000E956E000E196E000E26
:100610001A6E000E1B6E000E1C6E0BC083FF19506D
:10062000010FD96EDA6ADF50826E320E0F6E000E45
:10063000106E000E116E000E126E63EC03F00CC013
:1006400083FF1A50010FD96EDA6ADF50826E320EC4
:100650000F6E000E106E000E116E000E126E63EC27
:1006600003F00DC083FF1B50010FD96EDA6ADF5013
:10067000826E320E0F6E000E106E000E116E000EA6
:10068000126E63EC03F00EC083FF1C50010FD96E95
:10069000DA6ADF50826E320E0F6E000E106E000EA0
:1006A000116E000E126E63EC03F081BA5AEF03F084
:1006B0005CEF03F00DEF03F0000E186E182A5EEFEA
:1006C00003F000EF00F0000E146E000E156E000E29
:1006D000166E000E176E73EF03F0010E1426000E57
:1006E00015221622172214500F5C15501058165060
:1006F00011581250800A136E1750800A1358D8B040
:1007000084EF03F086EF03F06DEF03F01200340E78
:10071000F66E070EF76E000EF86E00EE01F010EEAA
:100720000EF00900F5CFEEFFE550E150FAE10001CF
:1007300001EF03F03F065B4F666D7D077F670E0D8F
:020740000B07A5
:020000040030CA
:020002001F1EBF
:00000001FF
