:04000000C9EF03F051
:100600000000210E946E000E026E000E016E000EB0
:10061000046E000E036E82A010EF03F012EF03F0E1
:100620002AEF03F001500210D8A419EF03F01BEFDA
:1006300003F02AEF03F082828294000E026E010E14
:10064000016E82A026EF03F028EF03F021EF03F004
:1006500067EF03F082A02FEF03F031EF03F049EFD3
:1006600003F001040210D8A438EF03F03AEF03F0CE
:1006700049EF03F082928284000E026E020E016E38
:1006800082A045EF03F047EF03F040EF03F067EF80
:1006900003F082A04EEF03F050EF03F067EF03F09A
:1006A000020E01180210D8A458EF03F05AEF03F01D
:1006B00067EF03F082928294000E026E000E016ECC
:1006C00082A065EF03F067EF03F060EF03F082AA0A
:1006D0006CEF03F06EEF03F086EF03F003500410AD
:1006E000D8A475EF03F077EF03F086EF03F082866E
:1006F0008298000E046E010E036E82AA82EF03F050
:1007000084EF03F07DEF03F00BEF03F082AA8BEF91
:1007100003F08DEF03F0A5EF03F003040410D8A459
:1007200094EF03F096EF03F0A5EF03F08296828832
:10073000000E046E020E036E82AAA1EF03F0A3EF77
:1007400003F09CEF03F00BEF03F082AAAAEF03F093
:10075000ACEF03F0C5EF03F0020E03180410D8A4A9
:10076000B4EF03F0B6EF03F0C5EF03F08296829882
:10077000000E046E000E036E82AAC1EF03F0C3EFF9
:1007800003F0BCEF03F00BEF03F00BEF03F000EF0F
:0807900000F0000101EF03F08D
:00000001FF
