:0400000020EF3EF0BF
:107C4000000EF86E0001C2EF3EF031EF3EF006C0CC
:107C5000F6FF07C0F7FF0800F55093EC3EF0064A28
:107C6000072A06C0F6FF07C0F7FF0800F550000915
:107C7000D8A43DEF3EF03FEF3EF027EF3EF012007C
:107C8000000E066E000E076E000E086E000E096EE6
:107C900050EF3EF0010E0626000E072208220922B0
:107CA0000650015C07500258085003580450800ADF
:107CB000056E0950800A0558D8B061EF3EF063EFB9
:107CC0003EF04AEF3EF01200016E829001C083FF49
:107CD0008282000E036E000E026E024A032A03BE69
:107CE0007BEF3EF0E90E025C030E0358D8A07BEF59
:107CF0003EF07DEF3EF06DEF3EF08292000E056E9D
:107D0000000E046E044A052A05BE90EF3EF0890E6F
:107D1000045C130E0558D8A090EF3EF092EF3EF0B1
:107D200082EF3EF01200016E828001C083FF8282EA
:107D3000000E036E000E026E024A032A03BEAAEF73
:107D40003EF0E90E025C030E0358D8A0AAEF3EF005
:107D5000ACEF3EF09CEF3EF08292000E056E000EFE
:107D6000046E044A052A05BEBFEF3EF0890E045C8E
:107D7000130E0558D8A0BFEF3EF0C1EF3EF0B1EFB3
:107D80003EF01200000E946E000E956E9368000E89
:107D90000B6E000E0A6E81A4D0EF3EF0D2EF3EF0E3
:107DA00000EF3FF00A500B10D8A4D9EF3EF0DBEF04
:107DB0003EF000EF3FF082848296000E0B6E010EC3
:107DC0000A6E010E64EC3EF00F0E64EC3EF0ED0E18
:107DD000066E7E0E076E25EC3EF0E00E016E930EF1
:107DE000026E040E036E000E046E40EC3EF081A4A1
:107DF000FCEF3EF0FEEF3EF0F7EF3EF0CBEF3EF053
:107E000081A405EF3FF007EF3FF035EF3FF00A04A4
:107E10000B10D8A40EEF3FF010EF3FF035EF3FF01E
:107E200082948286000E0B6E020E0A6E010E64ECC6
:107E30003EF00F0E64EC3EF0DF0E066E7E0E076E17
:107E400025EC3EF0E00E016E930E026E040E036E02
:107E5000000E046E40EC3EF081A431EF3FF033EFB2
:107E60003FF02CEF3FF0CBEF3EF081A43AEF3FF034
:107E70003CEF3FF06BEF3FF0020E0A180B10D8A456
:107E800044EF3FF046EF3FF06BEF3FF08294829675
:107E9000000E0B6E000E0A6E010E64EC3EF00F0E2B
:107EA00064EC3EF0F70E066E7E0E076E25EC3EF09B
:107EB000E00E016E930E026E040E036E000E046E51
:107EC00040EC3EF081A467EF3FF069EF3FF062EFD6
:107ED0003FF0CBEF3EF0CBEF3EF000EF00F0004183
:107EE0006E7469636C6F636B7769736500436C6F65
:107EF000636B776973650053746F7070656400001D
:00000001FF
