:04000000A4EF37F042
:106F4600120000EE60F0200EEE6AE806FDE100EEAB
:106F560052F00B0EEE6AE806FDE1000EF86E000137
:106F660057EF3AF001500302F3CF05F0F4CF06F0E5
:106F760001500402F350062602500302F35006267F
:106F860005C001F006C002F01200D1EF37F00B5039
:106F9600D96EDA6ADF5012EC38F00B2A0B50D96E34
:106FA600DA6ADF50D8A4DAEF37F0DCEF37F0CAEF51
:106FB60037F0120008BEE2EF37F0E4EF37F0EAEF01
:106FC60037F007C007F008C008F0F6EF37F007C043
:106FD60009F008C00AF0091E0A1E094A0A2A09C051
:106FE60007F00AC008F012000A6E82900AC083FFFA
:106FF6008282880E016E130E026E000E036E000E64
:10700600046E88EC38F08292880E016E130E026EC2
:10701600000E036E000E046E88EC38F012000A6E45
:1070260082800AC083FF8282880E016E130E026E72
:10703600000E036E000E046E88EC38F08292880E05
:10704600016E130E026E000E036E000E046E88ECC7
:1070560038F01200340E366E31C037F0000E3B6E3B
:10706600000E3A6E000E426E000E416E370E2B6E0B
:1070760032C02CF033C02DF0360E2E6E67EC38F091
:1070860031503A24D96EDA6ADF6A1200000E0D6EAC
:10709600000E0C6E58EF38F00BC001F0026A0AC001
:1070A60003F0F1EC38F00C4A0D2A09500C24D96E85
:1070B600DA6ADF500B6E0B50D8A464EF38F066EF37
:1070C60038F04FEF38F012002CC02FF02DC030F002
:1070D60075EF38F02BC020F02F0E216E2EC022F057
:1070E60056EC3BF02FC0F6FF30C0F7FF0800F55016
:1070F6000009D8A481EF38F083EF38F06DEF38F04F
:10710600000E2C6E000E2B6E1200000E066E000E88
:10711600076E000E086E000E096E98EF38F0010E2D
:107126000626000E0722082209220650015C075097
:107136000258085003580450800A056E0950800A08
:107146000558D8B0A9EF38F0ABEF38F092EF38F029
:1071560012005CA0B1EF38F0B3EF38F0B9EF38F0B9
:107166000FC009F00EC00AF049EC38F011BEC0EFAE
:1071760038F0BEEF38F0C4EF38F0000E116E000E96
:10718600106E000E146E000E136ED4EF38F0000E63
:10719600026E200E016E0EC003F0F1EC38F0134AB9
:1071A600142A1050135C1450800A126E1150800A73
:1071B6001258D8A0E1EF38F0E3EF38F0CAEF38F014
:1071C6005CB0E8EF38F0EAEF38F0F0EF38F00FC0D7
:1071D60009F00EC00AF049EC38F012000350D8B49A
:1071E600F7EF38F0F9EF38F001EF39F00350D8A493
:1071F600FFEF38F001EF39F006EF39F00150A3EC5C
:1072060037F045EF39F00350D96EDA6A0A0ED926FF
:10721600DE50DE10D8B412EF39F014EF39F02DEF4E
:1072260039F00350D96EDA6A0A0ED9260350E16E98
:10723600E26A030EE126DE50E65CE650800A086E3E
:10724600DE50800A0858D8B02BEF39F02DEF39F010
:1072560045EF39F00350D96EDA6A030ED926DF50AE
:10726600046E0350D96EDA6ADF500424D96EDA6AE6
:1072760001C0DFFF0350D96EDA6A030ED926DE2A73
:10728600000EDD221200000E0B6E000E0A6E075075
:10729600D96EDA6ADECFF6FFDDCFF7FF0800F550CC
:1072A6002A0AD8A459EF39F05BEF39F085EF39F0A7
:1072B6000750D96EDA6ADE2A000EDD220850D96E32
:1072C600DA6A020EDF26DF5CD96EDA6ADECF0AF0F2
:1072D600DECF0BF098EF39F00AC001F00BC002F0D8
:1072E600000E046E0A0E036EB5EC37F00950012449
:1072F6000A6E000E02200B6E0750D96EDA6ADE2A7D
:10730600000EDD220750D96EDA6ADECFF6FFDDCF3A
:10731600F7FF0800F550D00F096E090E096496EFC5
:1073260039F098EF39F06FEF39F00AC007F00BC06B
:1073360008F01200000E066E02BEA6EF39F0A4EFAA
:1073460039F0ACEF39F0016C021ED8B0022A010EFA
:10735600066E04BEB3EF39F0B1EF39F0B7EF39F08E
:10736600036C041ED8B0042A03500410D8B4BEEF30
:1073760039F0C0EF39F0E4EF39F0010E056EC8EFD1
:1073860039F0D89003360436052A04AECDEF39F02D
:10739600CFEF39F0C4EF39F00350015C04500258C6
:1073A600D8A0D8EF39F0DAEF39F0DEEF39F0035034
:1073B600015E0450025AD89004320332052ECFEFF4
:1073C60039F00650D8B4EAEF39F0ECEF39F0F0EFC7
:1073D60039F0016C021ED8B0022A01C001F002C0C9
:1073E60002F01200000E066E04BEFEEF39F0FCEF4E
:1073F60039F004EF3AF0036C041ED8B0042A010EEB
:10740600066E02BE0BEF3AF009EF3AF011EF3AF0D2
:10741600016C021ED8B0022A010E061A000E086E72
:10742600000E076E03500410D8B41CEF3AF01EEF9E
:107436003AF046EF3AF0010E056E26EF3AF0D89094
:1074460003360436052A04AE2BEF3AF02DEF3AF058
:1074560022EF3AF0D890073608360350015C045004
:107466000258D8A039EF3AF03BEF3AF040EF3AF045
:107476000350015E0450025A0780D890043203324A
:10748600052E2DEF3AF00650D8B44CEF3AF04EEFF9
:107496003AF052EF3AF0076C081ED8B0082A07C037
:1074A60001F008C002F01200020E926E000E946EF9
:1074B600000E956E010EF7EC37F00F0EF7EC37F075
:1074C600050EC26E000EC16E860EC06E640E016E93
:1074D600000E026E000E036E000E046E88EC38F08D
:1074E600C2829EAC79EF3AF07BEF3AF074EF3AF055
:1074F6009E9CC3CF5AF0C4CF5BF0C40E136E590ED8
:10750600146EF90E156E3E0E166E5AC001F05BC073
:1075160002F0000E02BEFF0E036E046E010E8BEC2F
:107526003CF001C00FF002C010F003C011F004C01F
:1075360012F065EC3DF00FC028F010C029F011C024
:107546002AF012C02BF0D3EC3AF028C058F029C02C
:1075560059F0430E316EF50E326E7E0E336E58C004
:1075660034F059C035F02DEC38F05850561809E172
:1075760059505718D8B4C2EF3AF0C4EF3AF069EF51
:107586003AF0800EF7EC37F0430E0B6EC8EC37F08E
:1075960058C056F059C057F069EF3AF000EF00F0C6
:1075A6002A342B34316E3150D8A4DCEF3AF0DEEFBA
:1075B6003AF0E8EF3AF0000E286E000E296E000E43
:1075C6002A6E000E2B6E55EF3BF028C02CF029C01A
:1075D6002DF02AC02EF02BC02FF0200EF8EF3AF037
:1075E600D8902F322E322D322C32E82EF3EF3AF08D
:1075F6002C50306E2A8EFF0E2816FF0E2916FF0E0F
:107606002A16000E2B16960E315E31BE0FEF3BF09A
:107616000DEF3BF025EF3BF03150800A970FD8B0C5
:1076260017EF3BF019EF3BF01BEF3BF0DEEF3AF0C4
:10763600D8902B322A3229322832313E1BEF3BF0CA
:107646003DEF3BF01F0E31642BEF3BF02DEF3BF08F
:1076560035EF3BF0DEEF3AF0D890283629362A3659
:107666002B3631063150D8A43BEF3BF03DEF3BF0D3
:107676002FEF3BF03050D8B443EF3BF045EF3BF0F3
:107686004DEF3BF02B1E2A1E291E286C000E2922C8
:107696002A222B2228C028F029C029F02AC02AF045
:1076A6002BC02BF012002150D96EDA6ADECFF6FF1E
:1076B600DDCFF7FF0800F550250AD8A465EF3BF0AB
:1076C60067EF3BF0D9EF3BF02150D96EDA6ADE2A3C
:1076D600000EDD22000E536E000E526E52C05CF09C
:1076E6005468556821C007F022C008F046EC39F00E
:1076F60007C052F008C053F053BE86EF3BF084EF4C
:107706003BF08BEF3BF05C80526C531ED8B0532A93
:107716002150D96EDA6ADECF29F0DDCF2AF029C0F2
:10772600F6FF2AC0F7FF0800F550640AD8B49EEFAA
:107736003BF0A0EF3BF0AEEF3BF029C0F6FF2AC0CE
:10774600F7FF0800F550690AD8A4ACEF3BF0AEEF9E
:107756003BF0D1EF3BF02250D96EDA6A020EDF26FB
:10776600DF5CD96EDA6ADECF25F0DECF26F0010EB9
:107776002924236E000E2A20246E2150D96EDA6A3F
:1077860023C0DEFF24C0DDFF20C015F025C016F0A3
:1077960026C017F0EBEC3BF0EAEF3BF02150D96E38
:1077A600DA6ADE2A000EDD22EAEF3BF02150D96EBE
:1077B600DA6ADECFF6FFDDCFF7FF0800F550016E7F
:1077C600026A20C003F0F1EC38F0D1EF3BF0120072
:1077D600010E1C6E17BEF2EF3BF0F5EF3BF0010E0B
:1077E600F6EF3BF0000E1D6E52C01AF053C01BF0B0
:1077F6001D50D8B401EF3CF003EF3CF01AEF3CF01B
:107806001A06D8A01B061D50D8A40CEF3CF00EEFAC
:107816003CF014EF3CF0000E196E2B0E186E18EFAC
:107826003CF0000E196E2D0E186E18C01DF0000EDD
:107836001F6E1F0E1E6E000E00017F6F50EF3CF094
:107846001E06D8A01F061E50600FD96EDA6A16C033
:1078560001F017C002F0000E046E0A0E036E9DECD6
:1078660039F001C007F002C008F0DDEC37F0075030
:10787600300FDF6E000E1C6E1A06D8A01B0616C04F
:1078860001F017C002F0000E046E0A0E036EF5EC4E
:1078960039F001C016F002C017F01FBE5BEF3CF0D6
:1078A6001F5008E11E04D8A05BEF3CF05DEF3CF0F2
:1078B6006EEF3CF016501710D8A464EF3CF066EF5C
:1078C6003CF023EF3CF01C50D8A46CEF3CF06EEF7C
:1078D6003CF023EF3CF01D50D8B474EF3CF076EF4B
:1078E6003CF07FEF3CF01E06D8A01F061E50600F2E
:1078F600D96EDA6A1DC0DFFF15C00EF01E50600F8C
:107906000F6E1AC010F01BC011F0ACEC38F012006C
:10791600096E0950D8B492EF3CF094EF3CF0B6EF04
:107926003CF004BE9BEF3CF099EF3CF0B6EF3CF028
:1079360001C005F002C006F003C007F004C008F05D
:10794600051E061E071E081E052A000E0622072211
:10795600082205C00BF006C00CF007C00DF008C0E9
:107966000EF0BEEF3CF001C00BF002C00CF003C0FD
:107976000DF004C00EF00150021003100410D8A43C
:10798600C7EF3CF0C9EF3CF0D3EF3CF0000E016EC0
:10799600000E026E000E036E000E046E64EF3DF0E4
:1079A600960E0A6EDDEF3CF00A2AD8900E320D32A2
:1079B6000C320B32000E0B14056E000E0C14066E04
:1079C600000E0D14076EFE0E0E14086E05500610FE
:1079D60007100810D8A4F2EF3CF0F4EF3CF0D7EF14
:1079E6003CF002EF3DF00A2A010E0B26000E0C2297
:1079F6000D220E22D8900E320D320C320B32000EB2
:107A06000B14056E000E0C14066E000E0D14076E98
:107A1600FF0E0E14086E0550061007100810D8A4A5
:107A260017EF3DF019EF3DF0F6EF3CF021EF3DF09A
:107A36000A06D8900B360C360D360E360DBE26EFDE
:107A46003DF028EF3DF030EF3DF0020E0A602EEFDC
:107A56003DF030EF3DF01BEF3DF00AB035EF3DF065
:107A660037EF3DF038EF3DF00D9ED8900A320AC050
:107A760005F0066A076A086A05C008F0076A066A1A
:107A8600056A05500B1206500C1207500D120850CD
:107A96000E120950D8B452EF3DF054EF3DF05CEFB2
:107AA6003DF004BE5BEF3DF059EF3DF05CEF3DF07D
:107AB6000E8E0BC001F00CC002F00DC003F00EC01C
:107AC60004F012001250800B1B6E12501224216E0D
:107AD60011AE70EF3DF072EF3DF073EF3DF0218097
:107AE6002150D8B479EF3DF07BEF3DF08EEF3DF0BD
:107AF6002128D8A481EF3DF083EF3DF08BEF3DF0D8
:107B0600000E0F6E000E106E000E116E000E126E3D
:107B1600118E96EF3DF0000E0F6E000E106E000EE9
:107B2600116E000E126E1650800B1B1A165016247C
:107B3600206E15AEA1EF3DF0A3EF3DF0A4EF3DF0B2
:107B460020802050D8B4AAEF3DF0ACEF3DF0BFEF57
:107B56003DF02028D8A4B2EF3DF0B4EF3DF0BCEFE5
:107B66003DF0000E136E000E146E000E156E000E24
:107B7600166E158EC7EF3DF0000E136E000E146ED6
:107B8600000E156E000E166E2050D8B4CDEF3DF0E7
:107B9600CFEF3DF0D7EF3DF02150D8A4D5EF3DF023
:107BA600D7EF3DF0E1EF3DF0000E0F6E000E106EC8
:107BB600000E116E000E126E79EF3FF015500F0297
:107BC600F3CF26F0F4CF27F026501C6E1D6A1E6AEE
:107BD6001F6A2750226E236A246A256A14501002EF
:107BE600F3CF26F0F4CF27F026501C26000E1D22D8
:107BF6001E221F2227502226000E2322242225225F
:107C060013501102F3CF26F0F4CF27F026501C268E
:107C1600000E1D221E221F2227502226000E23227E
:107C2600242225221EC01FF01DC01EF01CC01DF000
:107C36001C6A13501002F3CF26F0F4CF27F026501B
:107C46001C2627501D22000E1E22000E1F22145035
:107C56000F02F3CF26F0F4CF27F026501C2627502C
:107C66001D22000E1E22000E1F221EC01FF01DC068
:107C76001EF01CC01DF01C6A13500F02F3CF26F035
:107C8600F4CF27F026501C2627501D22000E1E2258
:107C9600000E1F2215501002F3CF26F0F4CF27F066
:107CA6002650222627502322000E2422000E2522AB
:107CB60014501102F3CF26F0F4CF27F026502226D7
:107CC60027502322000E2422000E252215501102D1
:107CD600F3CF26F0F4CF27F02650176E2750186EF4
:107CE600196A1A6A19C01AF018C019F017C018F0E4
:107CF600176A1750222618502322195024221A5088
:107D060025221CC017F01DC018F01EC019F01FC098
:107D16001AF0190E94EF3EF0D8901A321932183232
:107D26001732E82E8FEF3EF01750222618502322E6
:107D3600195024221A5025221EC01FF01DC01EF005
:107D46001CC01DF01C6A205021C017F0186A1726A7
:107D5600000E1822820E1724266EFF0E1820276E9C
:107D6600CAEF3EF0D89022362336243625361FAE8B
:107D7600BFEF3EF0C1EF3EF0C2EF3EF02280D8905A
:107D86001C361D361E361F362606D8A0270624AEFC
:107D9600CFEF3EF0D1EF3EF0B5EF3EF0000E206E95
:107DA6001FAED8EF3EF0DAEF3EF0FEEF3EF0FF0EEC
:107DB6001C14176EFF0E1D14186EFF0E1E14196E7E
:107DC6007F0E1F141A6E1750181019101A10D8B4F7
:107DD600EFEF3EF0F1EF3EF0F5EF3EF0010E206ED4
:107DE600FEEF3EF022A0FAEF3EF0FCEF3EF0FEEF93
:107DF6003EF0F1EF3EF02050D8B404EF3FF006EF2E
:107E06003FF02AEF3FF0010E2226000E2322242205
:107E1600252225A011EF3FF013EF3FF02AEF3FF0A8
:107E260022C017F023C018F024C019F025C01AF09C
:107E36001A341A3219321832173217C022F018C003
:107E460023F019C024F01AC025F0264A272A27BE97
:107E560035EF3FF0275008E12628D8A035EF3FF050
:107E660037EF3FF041EF3FF0000E226E000E236E1B
:107E7600800E246E7F0E256E6FEF3FF027BE4EEF0D
:107E86003FF0275006E12604D8B04CEF3FF04EEF06
:107E96003FF05AEF3FF0000E226E000E236E000EEA
:107EA600246E000E256E000E1B6E6FEF3FF026C08F
:107EB60021F0FF0E2216FF0E23167F0E2416000E4B
:107EC600251621A069EF3FF06BEF3FF06CEF3FF016
:107ED600248ED8902130256E1B50251222C00FF01B
:107EE60023C010F024C011F025C012F01200007457
:097EF600656D703D253464000047
:00000001FF
