:040000009AEF06F07D
:10060000002534640000010E1C6E17BE0AEF03F0D3
:100610000DEF03F0010E0EEF03F0000E1D6E52C041
:100620001AF053C01BF01D50D8B419EF03F01BEFA4
:1006300003F032EF03F01A06D8A01B061D50D8A411
:1006400024EF03F026EF03F02CEF03F0000E196EF9
:100650002B0E186E30EF03F0000E196E2D0E186E73
:1006600018C01DF0000E1F6E1F0E1E6E000E000142
:100670007F6F68EF03F01E06D8A01F061E50600FA4
:10068000D96EDA6A16C001F017C002F0000E046ECF
:100690000A0E036E55EC05F001C007F002C008F029
:1006A00045EC07F00750300FDF6E000E1C6E1A0687
:1006B000D8A01B0616C001F017C002F0000E046E91
:1006C0000A0E036E98EC04F001C016F002C017F099
:1006D0001FBE73EF03F01F5008E11E04D8A073EF94
:1006E00003F075EF03F086EF03F016501710D8A44F
:1006F0007CEF03F07EEF03F03BEF03F01C50D8A437
:1007000084EF03F086EF03F03BEF03F01D50D8B405
:100710008CEF03F08EEF03F097EF03F01E06D8A0E6
:100720001F061E50600FD96EDA6A1DC0DFFF15C0AC
:100730000EF01E50600F0F6E1AC010F01BC011F0AB
:1007400055EC06F012002150D96EDA6ADFCFF6FFC1
:10075000060EF76E0800F550250AD8A4B2EF03F094
:10076000B4EF03F018EF04F02150D96EDA6ADF2AF3
:10077000000E536E000E526E52C056F0546855680B
:1007800021C007F022C008F002EC06F007C052F0CA
:1007900008C053F053BED1EF03F0CFEF03F0D6EF14
:1007A00003F05680526C531ED8B0532A2150D96E94
:1007B000DA6ADF50276E27C0F6FF060EF76E0800D4
:1007C000F550640AD8B4E7EF03F0E9EF03F0F7EF70
:1007D00003F027C0F6FF060EF76E0800F550690A11
:1007E000D8A4F5EF03F0F7EF03F012EF04F0225076
:1007F000D96EDA6A020EDF26DF5CD96EDA6ADECFE6
:1008000023F0DECF24F02150D96EDA6A2728DF6E7C
:1008100020C015F023C016F024C017F003EC03F03D
:1008200029EF04F02150D96EDA6ADF2A29EF04F0AB
:100830002150D96EDA6ADFCFF6FF060EF76E080098
:10084000F550016E026A20C003F0ADEC05F012EF26
:1008500004F01200000E946E000E956E010EC26E32
:10086000000EC16E860EC06E640E016E000E026E2A
:10087000000E036E000E046ECAEC06F0C2829EAC3F
:1008800044EF04F046EF04F03FEF04F09E9CC3CF2A
:100890004CF0C4CF4DF03D0E2C6E010E2D6E4CC0B1
:1008A0002EF04DC02FF02BEC07F0000E4F6E000E17
:1008B0004E6E000E516E000E506E5050570FD96E96
:1008C000DA6ADF50836E50503D0FD96EDA6ADF501E
:1008D000FAEC04F0E80E016E030E026E000E036ED9
:1008E000000E046ECAEC06F0504A512A51BE82EF47
:1008F00004F0515009E1040E505CD8A082EF04F0DE
:1009000084EF04F05DEF04F04E4A4F2A4FBE92EFA1
:1009100004F04F5009E1640E4E5CD8A092EF04F051
:1009200094EF04F059EF04F034EF04F000EF00F01E
:10093000000E066E04BEA1EF04F09FEF04F0A7EFD7
:1009400004F0036C041ED8B0042A010E066E02BE29
:10095000AEEF04F0ACEF04F0B4EF04F0016C021E53
:10096000D8B0022A010E061A000E086E000E076E9D
:1009700003500410D8B4BFEF04F0C1EF04F0E9EF66
:1009800004F0010E056EC9EF04F0D890033604366A
:10099000052A04AECEEF04F0D0EF04F0C5EF04F06A
:1009A000D890073608360350015C04500258D8A08E
:1009B000DCEF04F0DEEF04F0E3EF04F00350015E3F
:1009C0000450025A0780D89004320332052ED0EF2B
:1009D00004F00650D8B4EFEF04F0F1EF04F0F5EFB7
:1009E00004F0076C081ED8B0082A07C001F008C040
:1009F00002F01200016E25EF05F080C082FF54EF77
:100A000005F081C082FF54EF05F082C082FF54EFF1
:100A100005F083C082FF54EF05F084C082FF54EFDD
:100A200005F085C082FF54EF05F086C082FF54EFC9
:100A300005F087C082FF54EF05F088C082FF54EFB5
:100A400005F089C082FF54EF05F00150200AD8B4A8
:100A5000FDEF04F0100AD8B4FDEF04F0010AD8B499
:100A600001EF05F0030AD8B405EF05F0010AD8B488
:100A700009EF05F0070AD8B40DEF05F0010AD8B464
:100A800011EF05F0030AD8B415EF05F0010AD8B448
:100A900019EF05F00F0AD8B41DEF05F0010AD8B41C
:100AA00021EF05F054EF05F01200000E066E02BEB5
:100AB0005EEF05F05CEF05F064EF05F0016C021EDF
:100AC000D8B0022A010E066E04BE6BEF05F069EF86
:100AD00005F06FEF05F0036C041ED8B0042A035034
:100AE0000410D8B476EF05F078EF05F09CEF05F030
:100AF000010E056E80EF05F0D89003360436052A06
:100B000004AE85EF05F087EF05F07CEF05F00350AC
:100B1000015C04500258D8A090EF05F092EF05F068
:100B200096EF05F00350015E0450025AD89004324B
:100B30000332052E87EF05F00650D8B4A2EF05F07A
:100B4000A4EF05F0A8EF05F0016C021ED8B0022A50
:100B500001C001F002C002F012000350D8B4B3EF9C
:100B600005F0B5EF05F0BDEF05F00350D8A4BBEFDD
:100B700005F0BDEF05F0C2EF05F0015079EC07F08C
:100B800001EF06F00350D96EDA6A0A0ED926DE505C
:100B9000DE10D8B4CEEF05F0D0EF05F0E9EF05F0A8
:100BA0000350D96EDA6A0A0ED9260350E16EE26A62
:100BB000030EE126DE50E65CE650800A086EDE5049
:100BC000800A0858D8B0E7EF05F0E9EF05F001EF2B
:100BD00006F00350D96EDA6A030ED926DF50046E90
:100BE0000350D96EDA6ADF500424D96EDA6A01C084
:100BF000DFFF0350D96EDA6A030ED926DE2A000E13
:100C0000DD221200000E0B6E000E0A6E0750D96E28
:100C1000DA6ADFCFF6FF060EF76E0800F5502A0AF3
:100C2000D8A415EF06F017EF06F03DEF06F00750D9
:100C3000D96EDA6ADF2A0850D96EDA6A020EDF2628
:100C4000DF5CD96EDA6ADECF0AF0DECF0BF050EF50
:100C500006F00AC001F00BC002F0000E046E0A0E8E
:100C6000036E5FEC07F0095001240A6E000E0220AB
:100C70000B6E0750D96EDA6ADF2A0750D96EDA6A2E
:100C8000DFCFF6FF060EF76E0800F550D00F096EA5
:100C9000090E09644EEF06F050EF06F029EF06F05A
:100CA0000AC007F00BC008F0120056A05AEF06F079
:100CB0005CEF06F062EF06F00FC009F00EC00AF01C
:100CC0000DEC07F011BE69EF06F067EF06F06DEF6F
:100CD00006F0000E116E000E106E000E146E000E67
:100CE000136E7DEF06F0000E026E200E016E0EC038
:100CF00003F0ADEC05F0134A142A1050135C1450A5
:100D0000800A126E1150800A1258D8A08AEF06F09D
:100D10008CEF06F073EF06F056B091EF06F093EF0C
:100D200006F099EF06F00FC009F00EC00AF00DECC6
:100D300007F01200E40EF66E0E0EF76E000EF86E5F
:100D400000EE80F010EE0AF00900F5CFEEFFE5505E
:100D5000E150FAE1EE0EF66E0E0EF76E000EF86E32
:100D600000EE57F010EE04F00900F5CFEEFFE5506D
:100D7000E150FAE100EE60F0200EEE6AE806FDE1D7
:100D8000566A556A546A536A526A000EF86E000138
:100D90002AEF04F0000E066E000E076E000E086EBD
:100DA000000E096EDAEF06F0010E0626000E07228D
:100DB000082209220650015C0750025808500358C7
:100DC0000450800A056E0950800A0558D8B0EBEF30
:100DD00006F0EDEF06F0D4EF06F0120029C02BF07C
:100DE000FAEF06F028C020F02B0E216E2AC022F068
:100DF000A3EC03F02BC0F6FF060EF76E0800F550CB
:100E00000009D8A406EF07F008EF07F0F2EF06F0AC
:100E1000000E296E000E286E1200000E0D6E000EE0
:100E20000C6E1CEF07F00BC001F0026A0AC003F061
:100E3000ADEC05F00C4A0D2A09500C24D96EDA6A83
:100E4000DF500B6E0B50D8A428EF07F02AEF07F005
:100E500013EF07F012002E0E306E2CC031F0000E92
:100E6000356E000E346E000E3C6E000E3B6E310E81
:100E7000286E2DC029F0300E2A6EEEEC06F02C50B4
:100E80003424D96EDA6ADF6A120008BE4AEF07F02E
:100E90004CEF07F052EF07F007C007F008C008F06A
:100EA0005EEF07F007C009F008C00AF0091E0A1E2D
:100EB000094A0A2A09C007F00AC008F012000150C6
:100EC0000302F3CF05F0F4CF06F001500402F35013
:100ED000062602500302F350062605C001F006C0A4
:100EE00002F01200C0F9A4B0999282F88098F1F251
:040EF000F4F8120000
:00000001FF
