:040000007EEF05F09A
:1006000000436F72726563742050617373776F7209
:100610006400454E5445522050415353574F524465
:100620000057726F6E672050617373776F7264004A
:10063000456E746572206E6577207061737300700B
:09064000617373207365740000FE
:10064A000F0EC16EF00E936E000E946E000E956E34
:10065A00826820EE24F010EE10F0040EDBCFE3FFE8
:10066A00E806FCE220EE1FF010EE15F0040EDBCFD8
:10067A00E3FFE806FCE2380E46EC05F0000E1D6EBC
:10068A00000E1C6E23EC04F00C501E6E1C50150F4D
:10069A00D96EDA6A1EC0DFFF81A856EF03F058EF61
:1006AA0003F051EF03F081AA5DEF03F05FEF03F06F
:1006BA0051EF03F081AC64EF03F066EF03F051EF02
:1006CA0003F081AE6BEF03F06DEF03F051EF03F02F
:1006DA00030E1C181D10D8A475EF03F077EF03F072
:1006EA00A8EF03F0150E016E100E026EF3EC04F083
:1006FA0001500210D8A484EF03F086EF03F09CEFB8
:10070A0003F0010E46EC05F0800E46EC05F0010EF2
:10071A000B6E95EC05F0880E016E130E026E000E3C
:10072A00036E000E046E22EC05F0A8EF03F0010E32
:10073A0046EC05F0800E46EC05F0210E0B6E95ECAA
:10074A0005F090EF03F01E5062EC05F0470E1E18FC
:10075A00D8A4B2EF03F0B4EF03F00FEF04F0010EE8
:10076A0046EC05F0800E46EC05F0300E0B6E95EC6B
:10077A0005F0C00E46EC05F0000E1B6E000E1A6E58
:10078A0023EC04F00C501E6E1E5062EC05F01A5059
:10079A00100FD96EDA6A1EC0DFFF81A8D7EF03F007
:1007AA00D9EF03F0D2EF03F081AADEEF03F0E0EF16
:1007BA0003F0D2EF03F081ACE5EF03F0E7EF03F0CB
:1007CA00D2EF03F081AEECEF03F0EEEF03F0D2EFDD
:1007DA0003F01A4A1B2A1BBEFCEF03F01B5009E167
:1007EA00040E1A5CD8A0FCEF03F0FEEF03F0C5EF8D
:1007FA0003F0010E46EC05F03F0E0B6E95EC05F08A
:10080A00500E016EC30E026E000E036E000E046ED1
:10081A0022EC05F01C4A1D2A1DBE1DEF04F01D50D6
:10082A0009E1040E1C5CD8A01DEF04F01FEF04F0D0
:10083A0047EF03F043EF03F000EF00F0000E0F6EF6
:10084A00000E0E6E0E0E816E81B82EEF04F030EFA0
:10085A0004F036EF04F0000E0D6E370E0C6EF2EF58
:10086A0004F081BA3BEF04F03DEF04F043EF04F0EB
:10087A00000E0D6E380E0C6EF2EF04F081BC48EFDC
:10088A0004F04AEF04F050EF04F0000E0D6E390E3A
:10089A000C6EF2EF04F081BE55EF04F057EF04F04E
:1008AA0062EF04F0100E46EC05F0200E62EC05F043
:1008BA00100E46EC05F00E4A0F2A0D0E816E81B815
:1008CA0069EF04F06BEF04F071EF04F0000E0D6EA7
:1008DA00340E0C6EF2EF04F081BA76EF04F078EF82
:1008EA0004F07EEF04F0000E0D6E350E0C6EF2EF82
:1008FA0004F081BC83EF04F085EF04F08BEF04F081
:10090A00000E0D6E360E0C6EF2EF04F00B0E816EB9
:10091A0081B892EF04F094EF04F09AEF04F0000E1D
:10092A000D6E310E0C6EF2EF04F081BA9FEF04F0F7
:10093A00A1EF04F0A7EF04F0000E0D6E320E0C6E5C
:10094A00F2EF04F081BCACEF04F0AEEF04F0B4EFC8
:10095A0004F0000E0D6E330E0C6EF2EF04F0070E6B
:10096A00816E81B8BBEF04F0BDEF04F0CAEF04F06A
:10097A000F0E46EC05F0800E46EC05F0120E0B6EDB
:10098A0095EC05F0C00E46EC05F081BACFEF04F005
:10099A00D1EF04F0D7EF04F0000E0D6E300E0C6E9E
:1009AA00F2EF04F081BCDCEF04F0DEEF04F0E3EFD9
:1009BA0004F0010E46EC05F027EF04F081BEE8EFE3
:1009CA0004F0EAEF04F0F0EF04F0000E0D6E470EAB
:1009DA000C6EF2EF04F027EF04F01200F7EF04F0C8
:1009EA00012A022A0250D96EDA6A0150E16EE26ADD
:1009FA00DE50E618D8A404EF05F006EF05F011EF73
:100A0A0005F00150D96EDA6ADF50D8A40FEF05F06D
:100A1A0011EF05F0F5EF04F00150D96EDA6ADF50F4
:100A2A00036E0250D96EDA6ADF50046E0450035C1A
:100A3A00016E026AD8A002061200000E066E000EAF
:100A4A00076E000E086E000E096E32EF05F0010EF9
:100A5A000626000E0722082209220650015C0750CA
:100A6A000258085003580450800A056E0950800A3B
:100A7A000558D8B043EF05F045EF05F02CEF05F027
:100A8A0012000A6E829082920AC083FF8284640EE8
:100A9A00016E000E026E000E036E000E046E22EC52
:100AAA0005F08294880E016E130E026E000E036E1C
:100ABA00000E046E22EC05F012000A6E8280829209
:100ACA000AC083FF8284640E016E000E026E000E5D
:100ADA00036E000E046E22EC05F08294880E016EFD
:100AEA00130E026E000E036E000E046E22EC05F069
:100AFA001200560EF66E0B0EF76E000EF86E00EE32
:100B0A001FF010EE0AF00900F5CFEEFFE550E150B4
:100B1A00FAE1000EF86E060EF76E000125EF03F0FB
:100B2A009EEF05F00BC0F6FF0800F55062EC05F0E9
:100B3A000B2A0BC0F6FF0800F5500009D8A4A8EF4D
:100B4A0005F0AAEF05F097EF05F0120030303030CB
:060B5A00003132333400CB
:00000001FF
