:0400000076EF04F0A3
:100600000000400E3EEC04F0000E446E000E436EFF
:100610004350310FD96EDA6ADF505AEC04F0434A86
:10062000442A44BE1DEF03F0445009E1080E435C28
:10063000D8A01DEF03F01FEF03F008EF03F0800ECA
:100640003EEC04F0000E5AEC04F0480E3EEC04F0D0
:10065000000E466E000E456E4550290FD96EDA6ABF
:10066000DF505AEC04F0454A462A46BE41EF03F0FB
:10067000465009E1080E455CD8A041EF03F043EF76
:1006800003F02CEF03F0810E3EEC04F0010E5AEC67
:1006900004F0500E3EEC04F0000E486E000E476E63
:1006A0004750210FD96EDA6ADF505AEC04F0474AFE
:1006B000482A48BE65EF03F0485009E1080E475C40
:1006C000D8A065EF03F067EF03F050EF03F0820E60
:1006D0003EEC04F0020E5AEC04F0580E3EEC04F02E
:1006E000000E4A6E000E496E4950190FD96EDA6A33
:1006F000DF505AEC04F0494A4A2A4ABE89EF03F017
:100700004A5009E1080E495CD8A089EF03F08BEF4D
:1007100003F074EF03F0830E3EEC04F0030E5AEC8A
:1007200004F0600E3EEC04F0000E4C6E000E4B6EBA
:100730004B50110FD96EDA6ADF505AEC04F04B4A75
:100740004C2A4CBEADEF03F04C5009E1080E4B5C57
:10075000D8A0ADEF03F0AFEF03F098EF03F0840EF5
:100760003EEC04F0040E5AEC04F0680E3EEC04F08B
:10077000000E4E6E000E4D6E4D50090FD96EDA6AA6
:10078000DF505AEC04F04D4A4E2A4EBED1EF03F032
:100790004E5009E1080E4D5CD8A0D1EF03F0D3EF25
:1007A00003F0BCEF03F0850E3EEC04F0050E5AECAE
:1007B00004F0700E3EEC04F0000E506E000E4F6E12
:1007C0004F50010FD96EDA6ADF505AEC04F04F4AED
:1007D000502A50BEF5EF03F0505009E1080E4F5C6F
:1007E000D8A0F5EF03F0F7EF03F0E0EF03F0860E8B
:1007F0003EEC04F0060E5AEC04F01200000E3E6EC1
:10080000000E3F6E000E406E000E416E0EEF04F0C3
:10081000010E3E26000E3F22402241223E50395C0E
:100820003F503A5840503B583C50800A3D6E415032
:10083000800A3D58D8B01FEF04F021EF04F008EF14
:1008400004F0120010080808080800000102191935
:10085000111F00000906000E11110A000000000E11
:1008600011110A000008140A0A12040800110A05EE
:1008700005050000000D121515120000426E829051
:10088000829242C083FF8284640E396E000E3A6EFB
:10089000000E3B6E000E3C6EFEEC03F08294880E60
:1008A000396E130E3A6E000E3B6E000E3C6EFEEC7F
:1008B00003F01200426E8280829242C083FF8284E3
:1008C000640E396E000E3A6E000E3B6E000E3C6EEA
:1008D000FEEC03F08294880E396E130E3A6E000E11
:1008E0003B6E000E3C6EFEEC03F01200440EF66E02
:1008F000080EF76E000EF86E00EE01F010EE38F004
:100900000900F5CFEEFFE550E150FAE1000189EF73
:1009100004F0000E946E000E956E82688368380EA7
:100920003EEC04F00C0E3EEC04F001EC03F095EF0D
:0609300004F000EF00F0EE
:00000001FF
