:040000006AEF03F0B0
:100600000000800E946E240EAC6E900EAB6E810EC8
:10061000AF6EF00E936E000E926E010E44EC03F07E
:100620000F0E44EC03F0380E44EC03F0060E44ECDD
:1006300003F0800E44EC03F060EC03F0046E610EF6
:100640000418D8A426EF03F028EF03F02AEF03F0F4
:1006500082908282630E0418D8A431EF03F033EF46
:1006600003F035EF03F082808292730E0418D8A451
:100670003CEF03F03EEF03F01CEF03F08290829218
:100680001CEF03F000EF00F0016E8290829201C037
:1006900083FF8284000E036E000E026E024A032A5C
:1006A00003BE5CEF03F0E90E025C030E0358D8A012
:1006B0005CEF03F05EEF03F04EEF03F08294120064
:1006C0009EAA65EF03F067EF03F060EF03F09E9AD8
:0E06D000AE501200000EF86E000101EF03F0B4
:00000001FF
