:0400000057EF06F0C0
:1006000000434F52524543542050415353574F5289
:10061000440057524F4E472050415353574F524476
:1006200000454E5445522050415353574F524400B9
:1006300020202020202020202020003000310032E7
:100640000033003400350036003700380039000030
:100650000F0EC16EF00E936E000E946E000E956E2E
:100660008268000E0D6E000E0C6E000E156E000EF0
:10067000146E160E0F6E2E0E0E6E000E176E000EFE
:10068000166E0E0E816E81B848EF03F04AEF03F04C
:1006900066EF03F08280490E0B6E2EEC06F016C05A
:1006A00001F017C002F0000E046E0A0E036E44EC57
:1006B00006F0080E0124166E000E0220176E81A8A7
:1006C00064EF03F066EF03F05FEF03F081BA6BEFC6
:1006D00003F06DEF03F08BEF03F082824B0E0B6E95
:1006E0002EEC06F016C001F017C002F0000E046EEA
:1006F0000A0E036E44EC06F0080E0124166E000E7E
:100700000220176E81AA87EF03F089EF03F082EFD2
:1007100003F0CAEF03F081BC90EF03F092EF03F017
:10072000B0EF03F082844D0E0B6E2EEC06F016C077
:1007300001F017C002F0000E046E0A0E036E44ECC6
:1007400006F0090E0124166E000E0220176E81AC11
:10075000ACEF03F0AEEF03F0A7EF03F0CAEF03F046
:1007600081BEB5EF03F0B7EF03F0CAEF03F0828666
:10077000100EF6EC05F0200E12EC06F0100EF6EC62
:1007800005F00C4A0D2A81AEC8EF03F0CAEF03F062
:10079000C3EF03F00D0E816E81B8D1EF03F0D3EFFC
:1007A00003F0F1EF03F08288430E0B6E2EEC06F09F
:1007B00016C001F017C002F0000E046E0A0E036EA0
:1007C00044EC06F0040E0124166E000E0220176E93
:1007D00081A8EDEF03F0EFEF03F0E8EF03F0DCEFBB
:1007E00004F081BAF6EF03F0F8EF03F016EF04F02F
:1007F000828A450E0B6E2EEC06F016C001F017C073
:1008000002F0000E046E0A0E036E44EC06F0050EB4
:100810000124166E000E0220176E81AA12EF04F05A
:1008200014EF04F00DEF04F0DCEF04F081BC1BEFDB
:1008300004F01DEF04F03BEF04F0828C470E0B6ECA
:100840002EEC06F016C001F017C002F0000E046E88
:100850000A0E036E44EC06F0060E0124166E000E1E
:100860000220176E81AC37EF04F039EF04F032EF5D
:1008700004F0DCEF04F081BE40EF04F042EF04F03E
:10088000DCEF04F0828EC00EF6EC05F0300E0B6E3D
:100890002EEC06F00E50161807E10F501718D8A4CA
:1008A00054EF04F056EF04F094EF04F0C00EF6ECB1
:1008B00005F0010E0B6E2EEC06F0000E116E000E10
:1008C000106E080EF6EC05F0E80E016E030E026ED7
:1008D000000E036E000E046ED2EC05F00E0EF6EC68
:1008E00005F0E80E016E030E026E000E036E000EA0
:1008F000046ED2EC05F0104A112A11BE89EF04F003
:10090000115009E10B0E105CD8A089EF04F08BEFB9
:1009100004F061EF04F081AE90EF04F092EF04F088
:100920008BEF04F0DCEF04F00E50161809E10F50C5
:100930001718D8B49EEF04F0A0EF04F0DCEF04F039
:10094000C00EF6EC05F0120E0B6E2EEC06F0000E4B
:10095000136E000E126E080EF6EC05F0E80E016E36
:10096000030E026E000E036E000E046ED2EC05F054
:100970000E0EF6EC05F0E80E016E030E026E000E90
:10098000036E000E046ED2EC05F0124A132A13BE59
:10099000D3EF04F0135009E10B0E125CD8A0D3EF93
:1009A00004F0D5EF04F0ABEF04F081AEDAEF04F021
:1009B000DCEF04F0D5EF04F00B0E816E81B8E3EFAD
:1009C00004F0E5EF04F003EF05F082803D0E0B6EBE
:1009D0002EEC06F016C001F017C002F0000E046EF7
:1009E0000A0E036E44EC06F0010E0124166E000E92
:1009F0000220176E81A8FFEF04F001EF05F0FAEF77
:100A000004F04BEF05F081BA08EF05F00AEF05F0AE
:100A100028EF05F082823F0E0B6E2EEC06F016C01A
:100A200001F017C002F0000E046E0A0E036E44ECD3
:100A300006F0020E0124166E000E0220176E81AA27
:100A400024EF05F026EF05F01FEF05F04BEF05F062
:100A500081BC2DEF05F02FEF05F04BEF05F0828400
:100A6000410E0B6E2EEC06F016C001F017C002F01E
:100A7000000E046E0A0E036E44EC06F0030E012411
:100A8000166E000E0220176E81AC49EF05F04BEF99
:100A900005F044EF05F0070E816E81B852EF05F0C6
:100AA00054EF05F097EF05F0828814501510D8A484
:100AB0005CEF05F05EEF05F07EEF05F00F0EF6EC53
:100AC00005F0010EF6EC05F0380EF6EC05F0800EA0
:100AD000F6EC05F0210E0B6E2EEC06F0000E156EF6
:100AE000010E146EC00EF6EC05F081A87AEF05F049
:100AF0007CEF05F075EF05F041EF03F014041510DD
:100B0000D8A485EF05F087EF05F0CEEF05F0080ECD
:100B1000F6EC05F0000E156E000E146E81A893EF32
:100B200005F095EF05F08EEF05F041EF03F081BA87
:100B30009CEF05F09EEF05F0BAEF05F0828A3B0EC0
:100B40000B6E2EEC06F016C001F017C002F0000E7E
:100B5000046E0A0E036E44EC06F001C016F002C0EB
:100B600017F081AAB6EF05F0B8EF05F0B1EF05F088
:100B700041EF03F081BCBFEF05F0C1EF05F0CEEF10
:100B800005F0828C010EF6EC05F081ACCAEF05F0A1
:100B9000CCEF05F0C5EF05F041EF03F041EF03F0B6
:100BA00000EF00F0000E066E000E076E000E086EDD
:100BB000000E096EE2EF05F0010E0626000E072278
:100BC000082209220650015C0750025808500358B9
:100BD0000450800A056E0950800A0558D8B0F3EF1A
:100BE00005F0F5EF05F0DCEF05F012000A6E8290DB
:100BF00082920AC083FF8284640E016E000E026E30
:100C0000000E036E000E046ED2EC05F08294880E86
:100C1000016E130E026E000E036E000E046ED2EC17
:100C200005F012000A6E828082920AC083FF8284DD
:100C3000640E016E000E026E000E036E000E046E56
:100C4000D2EC05F08294880E016E130E026E000E37
:100C5000036E000E046ED2EC05F0120037EF06F0C2
:100C60000BC0F6FF0800F55012EC06F00B2A0BC083
:100C7000F6FF0800F5500009D8A441EF06F043EF55
:100C800006F030EF06F0120001500302F3CF05F03A
:100C9000F4CF06F001500402F3500626025003027E
:100CA000F350062605C001F006C002F01200000E47
:0C0CB000F86E060EF76E000128EF03F04E
:00000001FF
