:0400000024EF04F0F5
:1006000000416E7469636C6F636B77697365004357
:100610006C6F636B776973650053746F707065649A
:100620000000010E946E000E956E000E0F6E000E0F
:100630000E6E82A01EEF03F020EF03F05BEF03F0DD
:100640000E500F10D8A427EF03F029EF03F05BEF53
:1006500003F082828294010ED6EC03F00F0ED6ECEA
:1006600003F00F0E0B6E0EEC04F0000E0D6E000E7C
:100670000C6E180ED6EC03F0880E016E130E026E8F
:10068000000E036E000E046EB2EC03F00C4A0D2A4D
:100690000DBE54EF03F00D5009E1200E0C5CD8A004
:1006A00054EF03F056EF03F039EF03F0020ED6ECEF
:1006B00003F035EF03F082A060EF03F062EF03F088
:1006C00084EF03F00E040F10D8A469EF03F06BEF72
:1006D00003F084EF03F082928284000E0F6E020E0C
:1006E0000E6E010ED6EC03F00F0ED6EC03F0010EE9
:1006F0000B6E0EEC04F082A080EF03F082EF03F0AB
:100700007BEF03F019EF03F082A089EF03F08BEF8A
:1007100003F0AEEF03F0020E0E180F10D8A493EF03
:1007200003F095EF03F0AEEF03F082928294000E97
:100730000F6E000E0E6E010ED6EC03F00F0ED6EC0F
:1007400003F0190E0B6E0EEC04F082A0AAEF03F07A
:10075000ACEF03F0A5EF03F019EF03F019EF03F08E
:1007600000EF00F0000E066E000E076E000E086E21
:10077000000E096EC2EF03F0010E0626000E0722DE
:10078000082209220650015C0750025808500358FD
:100790000450800A056E0950800A0558D8B0D3EF7E
:1007A00003F0D5EF03F0BCEF03F012000A6E82965F
:1007B00082980AC083FF828A640E016E000E026E68
:1007C000000E036E000E046EB2EC03F0829A880EE7
:1007D000016E130E026E000E036E000E046EB2EC7C
:1007E00003F012000A6E828682980AC083FF828A12
:1007F000640E016E000E026E000E036E000E046E9B
:10080000B2EC03F0829A880E016E130E026E000E97
:10081000036E000E046EB2EC03F0120017EF04F04A
:100820000BC0F6FF0800F550F2EC03F00B2A0BC0EA
:10083000F6FF0800F5500009D8A421EF04F023EFDB
:1008400004F010EF04F01200000EF86E060EF76EC2
:06085000000111EF03F0AE
:00000001FF
