:04000000AFEF03F06B
:070600000041746C79000059
:10060800080E946E000E956E010E61EC03F00F0E4D
:1006180061EC03F00F0E61EC03F0010E0B6E99EC28
:1006280003F0000E0D6E000E0C6E1C0E61EC03F054
:10063800880E016E130E026E000E036E000E046E1D
:100648003DEC03F00C4A0D2A0DBE34EF03F00D50BB
:1006580009E1200E0C5CD8A034EF03F036EF03F06C
:1006680019EF03F0020E61EC03F015EF03F000EF51
:1006780000F0000E066E000E076E000E086E000EEB
:10068800096E4DEF03F0010E0626000E0722082220
:1006980009220650015C07500258085003580450BC
:1006A800800A056E0950800A0558D8B05EEF03F03D
:1006B80060EF03F047EF03F012000A6E8290829217
:1006C8000AC083FF8284640E016E000E026E000E63
:1006D800036E000E046E3DEC03F08294880E016EEA
:1006E800130E026E000E036E000E046E3DEC03F056
:1006F80012000A6E828082920AC083FF8284640E8E
:10070800016E000E026E000E036E000E046E3DECCC
:1007180003F08294880E016E130E026E000E036EB3
:10072800000E046E3DEC03F01200A2EF03F00BC0C4
:10073800F6FF0800F5507DEC03F00B2A0BC0F6FF1E
:100748000800F5500009D8A4ACEF03F0AEEF03F0B1
:100758009BEF03F012000F6A0E6A000EF86E060E89
:08076800F76E000104EF03F03D
:00000001FF
