:0400000063EF03F0B7
:100600000000030E946E000E956E000E066E000E36
:10061000056E82A60EEF03F010EF03F009EF03F072
:1006200082B615EF03F017EF03F010EF03F005505B
:100630000610D8A41EEF03F020EF03F027EF03F01D
:100640008368000E066E010E056E09EF03F00504C7
:100650000610D8A42EEF03F030EF03F038EF03F0CC
:10066000000E836E000E066E020E056E09EF03F09B
:100670008368750E026E300E016E4FEC03F0000EB3
:10068000836E750E026E300E016E4FEC03F0000E9D
:10069000066E010E056E10EF03F000EF00F0000E85
:1006A000046E000E036E57EF03F0034A042A035052
:1006B000015C04500258D8B060EF03F062EF03F021
:0C06C00055EF03F01200000101EF03F001
:00000001FF
