:040000001FEF04F0FA
:100600000000000E946E000E956E010E176E000E27
:10061000186E000E196E000E1A6E17C082FF000EC3
:100620000F6E000E106E000E116E000E126E010E97
:100630000F26000E102211221222125011100BE16F
:10064000B80E0F5C0B0E1058D8A029EF03F02BEF5B
:1006500003F017EF03F0D8901734176E1834186EA4
:100660001934196E1A341A6E1ABE42EF03F01A507A
:100670001910181009E1810E175CD8A042EF03F0A1
:1006800044EF03F00DEF03F0000E826E800E1B6E40
:10069000000E1C6E000E1D6E000E1E6E1BC082FF33
:1006A000000E136E000E146E000E156E000E166E08
:1006B000010E1326000E14221522162216501510B4
:1006C0000BE1B80E135C0B0E1458D8A06AEF03F0C0
:1006D0006CEF03F058EF03F01BC001F01CC002F0F8
:1006E0001DC003F01EC004F0020E056E000E066E63
:1006F000000E076E000E086E99EC03F001C01BF0AF
:1007000002C01CF003C01DF004C01EF01EBE95EF19
:1007100003F01E501D101C1006E11B04D8B093EF0F
:1007200003F095EF03F04EEF03F005EF03F000EF59
:1007300000F0000E0A6E08BEA2EF03F0A0EF03F077
:10074000ACEF03F0081E071E061E056C000E062205
:1007500007220822010E0A6E04BEB3EF03F0B1EFC8
:1007600003F0BDEF03F0041E031E021E016C000E19
:10077000022203220422010E0A1A000E0B6E000E42
:100780000C6E000E0D6E000E0E6E0550061007105A
:100790000810D8B4CEEF03F0D0EF03F006EF04F06A
:1007A000010E096EDAEF03F0D890053606360736EB
:1007B0000836092A08AEDFEF03F0E1EF03F0D4EFCB
:1007C00003F0D8900B360C360D360E360550015C12
:1007D000065002580750035808500458D8A0F3EFA9
:1007E00003F0F5EF03F0FEEF03F00550015E065055
:1007F000025A0750035A0850045A0B80D890083206
:10080000073206320532092EE1EF03F00A50D8B460
:100810000CEF04F00EEF04F016EF04F00E1E0D1EA8
:100820000C1E0B6C000E0C220D220E220BC001F0D0
:100830000CC002F00DC003F00EC004F01200000165
:0408400001EF03F0D1
:00000001FF
